:020000040800F2
:10000000480D0020F11D0008511E0008511E000877
:10001000511E0008511E0008511E0008000000007B
:10002000000000000000000000000000511E000859
:10003000511E000800000000511E0008511E00085B
:10004000511E0008511E0008511E0008511E0008D4
:10005000511E0008511E0008511E0008511E0008C4
:10006000511E0008511E0008511E0008511E0008B4
:10007000511E0008511E0008511E0008511E0008A4
:10008000511E0008511E0008511E0008511E000894
:10009000511E0008511E0008511E0008511E000884
:1000A000511E0008511E0008511E0008511E000874
:1000B000511E0008511E0008E9070008511E0008E3
:1000C000511E0008511E0008511E0008511E000854
:1000D000511E0008511E0008511E00089D15000801
:1000E000B9300008511E0008511E00080000000031
:1000F0000000000000000000000000000000000000
:1001000000000000000000005FF808F180B485B036
:1001100000AF786039600023FB817B681B88FB811E
:100120007B682E4A934213D07B682D4A93420FD0AE
:100130007B68B3F1804F0BD07B682A4A934207D08B
:100140007B68294A934203D07B68284A934208D1AE
:10015000FB8923F07003FB813B685A88FB891343BA
:10016000FB817B68224A93420CD07B68214A9342F0
:1001700008D0FB8923F44073FB813B68DA88FB8954
:100180001343FB817B68FA891A803B689A887B68F5
:100190009A853B681A887B681A857B680F4A934268
:1001A0000FD07B680E4A93420BD07B68124A934271
:1001B00007D07B68114A934203D07B68104A934270
:1001C00004D13B681B7A9AB27B681A867B6801224D
:1001D0009A8200BF1437BD4680BC7047002C014096
:1001E000003401400004004000080040000C0040C2
:1001F0000010004000140040004001400044014055
:100200000048014080B485B000AF786039600023B9
:100210007B810023FB810023BB817B681B8C9BB20D
:1002200023F001039AB27B681A847B681B8CFB81E4
:100230007B689B88BB817B681B8B7B817B8923F0E0
:1002400070037B817B8923F003037B813B681A88E1
:100250007B8913437B81FB8923F00203FB813B688D
:100260001A89FB891343FB813B685A88FB89134336
:10027000FB817B68244A93420FD07B68234A9342D8
:100280000BD07B68224A934207D07B68214A934275
:1002900003D07B68204A934223D1FB8923F00803D3
:1002A000FB813B685A89FB891343FB81FB8923F05F
:1002B0000403FB813B689A88FB891343FB81BB895C
:1002C00023F48073BB81BB8923F40073BB813B683B
:1002D0009A89BB891343BB813B68DA89BB89134385
:1002E000BB817B68BA899A807B687A891A833B686C
:1002F000DA887B689A867B68FA891A8400BF14378B
:10030000BD4680BC704700BF002C01400034014056
:1003100000400140004401400048014080B485B0E5
:1003200000AF7860396000237B810023FB810023CC
:10033000BB817B681B8C9BB223F010039AB27B6855
:100340001A847B681B8CFB817B689B88BB817B68E4
:100350001B8B7B817B8923F4E0437B817B8923F4A6
:1003600040737B813B681B881B029AB27B891343D5
:100370007B81FB8923F02003FB813B681B891B01E8
:100380009AB2FB891343FB813B685B881B019AB2DD
:10039000FB891343FB817B68224A934203D07B682D
:1003A000214A93422BD1FB8923F08003FB813B68D8
:1003B0005B891B019AB2FB891343FB81FB8923F004
:1003C0004003FB813B689B881B019AB2FB89134366
:1003D000FB81BB8923F48063BB81BB8923F4006369
:1003E000BB813B689B899B009AB2BB891343BB814D
:1003F0003B68DB899B009AB2BB891343BB817B6856
:10040000BA899A807B687A891A833B68DA887B6824
:100410001A877B68FA891A8400BF1437BD4680BCEE
:10042000704700BF002C01400034014080B485B00B
:1004300000AF7860396000237B810023FB810023BB
:10044000BB817B681B8C9BB223F480739AB27B6860
:100450001A847B681B8CFB817B689B88BB817B68D3
:100460009B8B7B817B8923F070037B817B8923F0CD
:1004700003037B813B681A887B8913437B81FB895B
:1004800023F40073FB813B681B891B029AB2FB8932
:100490001343FB813B685B881B029AB2FB891343C1
:1004A000FB817B68224A934203D07B68214A9342B6
:1004B0002BD1FB8923F40063FB813B685B891B0222
:1004C0009AB2FB891343FB81FB8923F48063FB8190
:1004D0003B689B881B029AB2FB891343FB81BB8953
:1004E00023F48053BB81BB8923F40053BB813B6859
:1004F0009B891B019AB2BB891343BB813B68DB8993
:100500001B019AB2BB891343BB817B68BA899A806D
:100510007B687A899A833B68DA887B689A877B68EC
:10052000FA891A8400BF1437BD4680BC704700BFEB
:10053000002C01400034014080B485B000AF7860E9
:1005400039600023BB8100237B810023FB817B6812
:100550001B8C9BB223F480539AB27B681A847B680D
:100560001B8C7B817B689B88FB817B689B8BBB8121
:10057000BB8923F4E043BB81BB8923F44073BB8177
:100580003B681B881B029AB2BB891343BB817B89E2
:1005900023F400537B813B681B891B039AB27B8940
:1005A00013437B813B685B881B039AB27B891343AF
:1005B0007B817B68124A934203D07B68114A934245
:1005C0000AD1FB8923F48043FB813B689B899B0113
:1005D0009AB2FB891343FB817B68FA899A807B6816
:1005E000BA899A833B68DA887B68A3F840207B68E5
:1005F0007A891A8400BF1437BD4680BC704700BF9B
:10060000002C01400034014080B483B000AF78601A
:100610000B46FB70FB78002B08D07B681B889BB2D5
:1006200043F001039AB27B681A8007E07B681B885D
:100630009BB223F001039AB27B681A8000BF0C378B
:10064000BD4680BC704700BF80B485B000AF786005
:100650000B467B800023FB817B681B8BFB81FB8926
:1006600023F00803FB81FA897B881343FB817B68B5
:10067000FA891A8300BF1437BD4680BC704700BF9B
:1006800080B485B000AF78600B467B800023FB818F
:100690007B681B8BFB81FB8923F40063FB817B88D8
:1006A0001B029AB2FB891343FB817B68FA891A8388
:1006B00000BF1437BD4680BC704700BF80B485B012
:1006C00000AF78600B467B800023FB817B689B8BAF
:1006D000FB81FB8923F00803FB81FA897B881343A4
:1006E000FB817B68FA899A8300BF1437BD4680BCC2
:1006F000704700BF80B485B000AF78600B467B8048
:100700000023FB817B689B8BFB81FB8923F40063C7
:10071000FB817B881B029AB2FB891343FB817B68B8
:10072000FA899A8300BF1437BD4680BC704700BF6A
:1007300080B483B000AF0346FB71084997F90730D6
:100740005B09FA7902F01F02012000FA02F241F877
:10075000232000BF0C37BD4680BC704700E100E09D
:1007600080B483B000AF0346FB71094997F90730A5
:100770005B09FA7902F01F02012000FA02F220332D
:1007800041F8232000BF0C37BD4680BC704700BF36
:1007900000E100E080B483B000AF03463960FB7134
:1007A00097F90730002B0BDA0D49FB7903F00F03A3
:1007B000043B3A68D2B21201D2B20B441A7609E075
:1007C000084997F907303A68D2B21201D2B20B4405
:1007D00083F8002300BF0C37BD4680BC704700BFC4
:1007E00000ED00E000E100E080B400AF094A094BF1
:1007F0001B8A9BB223F001039BB21382064B1B881A
:100800009BB201339AB2044B1A8000BFBD4680BC34
:10081000704700BF00080040E005002080B582B0AE
:1008200000AF1E20FFF79CFF0E4B9B8CFB800E4BF6
:100830001B88BB800B4B1B8A9BB203F00103002B70
:1008400004D0BB880133BB800023FB801E20FFF750
:100850006FFFBB881A04FB88134318460837BD4650
:1008600080BD00BF00080040E005002080B500AF5B
:1008700001211E20FFF78EFF1E20FFF759FF0F4AB0
:100880000E4BDB6943F00403D3610D4B47221A85FD
:100890000B4B4FF6FF729A85094A094B9B899BB215
:1008A00043F001039BB29381054A054B1B889BB221
:1008B00043F001039BB2138000BF80BD00100240D3
:1008C0000008004080B584B000AF7860FFF7A6FF55
:1008D000F86000BFFFF7A2FF0246FB68D21A7B68F0
:1008E0009A42F7D300BF1037BD4680BD80B586B0B1
:1008F00000AFF860B9607A60FB7000237B61002371
:100900003B61FB689B889BB243F480739AB2FB689F
:100910009A80FB78022B40F08C8001237A68B968BA
:10092000F86800F0EFFCFB689B889BB243F48053AF
:100930009AB2FB689A80FB689B889BB243F4006381
:100940009AB2FB689A804FF6FF733B61FB681B8885
:100950009BB243F480739AB2FB681A8006E03B694D
:100960005A1E3A61002B01D1002362E2FB689B8A88
:100970009BB203F00103002BF1D04FF6FF733B61F4
:1009800097F8203043F0010387F82030854A97F824
:1009900020301370834B1B78DBB29AB2FB681A824B
:1009A00006E03B695A1E3A61002B01D1002340E268
:1009B000FB689B8A9BB203F00203002BF1D0FB681B
:1009C0001B8B9BB27B61FB68774A934210D100BFBF
:1009D0004FF0007003F05EFD0346002BF8D00021BD
:1009E000724803F03BFD4FF0007003F07BFD0FE019
:1009F00000BF4FF4003003F04DFD0346002BF8D04C
:100A000000216B4803F02AFD4FF4003003F06AFD2B
:100A1000FB681B889BB243F400739AB2FB681A8090
:100A200000BFFB681B889BB203F40073002BF8D156
:100A3000FEE1FB78002B40F0B3817B68012B70D185
:100A40004FF6FF733B61FB681B889BB243F48073D6
:100A50009AB2FB681A8006E03B695A1E3A61002B85
:100A600001D10023E5E1FB689B8A9BB203F00103FF
:100A7000002BF1D097F8203043F0010387F82030A5
:100A8000484A97F820301370464B1B78DBB29AB275
:100A9000FB681A824FF6FF733B6106E03B695A1E02
:100AA0003A61002B01D10023C3E1FB689B8A9BB212
:100AB00003F00203002BF1D0FB681B889BB223F4E8
:100AC00080639AB2FB681A8072B6FB681B8B9BB27C
:100AD0007B61FB681B889BB243F400739AB2FB688E
:100AE0001A8062B600BFFB689B8A9BB203F040038A
:100AF000002BF8D0FB681B8A9BB2DAB2BB681A7075
:100B000000BFFB681B889BB203F40073002BF8D175
:100B1000FB681B889BB243F480639AB2FB681A801F
:100B200086E17B68022B40F09080FB681B889BB2BB
:100B300043F400639AB2FB681A804FF6FF733B617F
:100B4000FB681B889BB243F480739AB2FB681A80DF
:100B500006E03B695A1E3A61002B01D1002368E18F
:100B6000FB689B8A9BB203F00103002BF1D04FF688
:100B7000FF733B6197F8203043F0010387F8203082
:100B8000084A97F820301370064B1B78DBB29AB2F4
:100B9000FB681A820EE03B695A1E3A61002B09D1AC
:100BA000002346E108070020005400408000024076
:100BB00058000240FB689B8A9BB203F00203002BA3
:100BC000E9D072B6FB681B8B9BB27B61FB681B880C
:100BD0009BB223F480639AB2FB681A8062B600BFAE
:100BE000FB689B8A9BB203F00403002BF8D072B61B
:100BF0000121F86803F0B4FDFB681B8A9BB2DAB2EE
:100C0000BB681A7062B6BB680133BB60FB681B8AA5
:100C10009BB2DAB2BB681A7000BFFB681B889BB23C
:100C200003F40073002BF8D1FB681B889BB243F4DC
:100C300080639AB2FB681A80FB681B889BB223F41E
:100C400000639AB2FB681A80F2E04FF6FF733B61D3
:100C5000FB681B889BB243F480739AB2FB681A80CE
:100C600006E03B695A1E3A61002B01D10023E0E007
:100C7000FB689B8A9BB203F00103002BF1D04FF677
:100C8000FF733B6197F8203043F0010387F8203071
:100C90006A4A97F820301370684B1B78DBB29AB21F
:100CA000FB681A8206E03B695A1E3A61002B01D1AB
:100CB0000023BEE0FB689B8A9BB203F00203002B7B
:100CC000F1D0FB681B8B9BB27B6155E07B68032BEB
:100CD00013D000BFFB689B8A9BB203F00403002B78
:100CE000F8D0FB681B8A9BB2DAB2BB681A70BB688B
:100CF0000133BB607B68013B7B607B68032B3BD18E
:100D000000BFFB689B8A9BB203F00403002BF8D062
:100D1000FB681B889BB223F480639AB2FB681A803D
:100D200072B6FB681B8A9BB2DAB2BB681A70BB68EA
:100D30000133BB60FB681B889BB243F400739AB21B
:100D4000FB681A80FB681B8A9BB2DAB2BB681A7018
:100D500062B6BB680133BB6000BFFB689B8A9BB275
:100D600003F04003002BF8D0FB681B8A9BB2DAB279
:100D7000BB681A7000237B607B68002BA6D100BF84
:100D8000FB681B889BB203F40073002BF8D1FB684F
:100D90001B889BB243F480639AB2FB681A8047E0D9
:100DA000FB689B889BB243F400739AB2FB689A80FD
:100DB000FB689B889BB243F480639AB2FB689A807D
:100DC0001F4B01221A6097F8203043F0010387F887
:100DD00020301A4A97F820301370FB68194A934262
:100DE00003D1194A7B68136002E0184A7B681360DC
:100DF000FB681B889BB243F480739AB2FB681A802D
:100E000000BFFB681B889BB203F48073002BF8D1F2
:100E100000BFFB681B8B9BB203F00203002BF8D1D1
:100E2000FB681B889BB243F480639AB2FB681A800C
:100E3000012318461837BD4680BD00BF08070020B3
:100E4000E805002000540040100700200C07002097
:100E500080B586B000AFF860B9607A60FB7000239F
:100E60007B6100233B61FB689B889BB243F48073EA
:100E70009AB2FB689A80FB78022B40F08C804FF688
:100E8000FF733B6100237A68B968F86800F03AFAAA
:100E9000FB689B889BB243F400639AB2FB689A801C
:100EA000FB681B889BB243F480739AB2FB681A807C
:100EB00006E03B695A1E3A61002B01D1002328E16C
:100EC000FB689B8A9BB203F00103002BF1D04FF625
:100ED000FF733B6197F8203023F0010387F820303F
:100EE0008E4A97F8203013708C4B1B78DBB29AB285
:100EF000FB681A8206E03B695A1E3A61002B01D159
:100F0000002306E1FB689B8A9BB203F00203002BDF
:100F1000F1D0FB681B8B9BB27B61FB68804A9342DC
:100F200010D100BF4FF4001003F0B4FA0346002BB9
:100F3000F8D000217B4803F091FA4FF4001003F041
:100F4000D1FA0FE000BF4FF4005003F0A3FA0346BC
:100F5000002BF8D00021744803F080FA4FF40050C1
:100F600003F0C0FA00BFFB689B8A9BB203F0040346
:100F7000002BF8D0FB681B889BB243F400739AB235
:100F8000FB681A8000BFFB681B889BB203F40073E8
:100F9000002BF8D1BCE0FB78002B79D14FF6FF7322
:100FA0003B61FB681B889BB243F480739AB2FB6879
:100FB0001A8006E03B695A1E3A61002B01D10023DA
:100FC000A7E0FB689B8A9BB203F00103002BF1D0E2
:100FD00097F8203023F0010387F820304F4A97F824
:100FE000203013704D4B1B78DBB29AB2FB681A822B
:100FF0004FF6FF733B6106E03B695A1E3A61002BD6
:1010000001D1002385E0FB689B8A9BB203F00203B9
:10101000002BF1D0FB681B8B9BB27B61BB681B78FC
:101020009AB2FB681A82BB680133BB607B68013BE4
:101030007B600FE000BFFB689B8A9BB203F0040358
:10104000002BF8D0BB681B789AB2FB681A82BB6889
:101050000133BB607B685A1E7A60002BEAD100BF67
:10106000FB689B8A9BB203F00403002BF8D0FB685B
:101070001B889BB243F400739AB2FB681A8000BFCE
:10108000FB681B889BB203F40073002BF8D13FE090
:10109000FB689B889BB243F400739AB2FB689A800A
:1010A000FB689B889BB243F480639AB2FB689A808A
:1010B0001E4B00221A6097F8203023F0010387F8B6
:1010C0002030164A97F820301370FB68144A934278
:1010D00003D1174A7B68136002E0164A7B681360ED
:1010E000FB681B889BB243F480739AB2FB681A803A
:1010F00000BFFB681B889BB203F48073002BF8D100
:1011000000BFFB681B8B9BB203F00203002BF8D1DE
:10111000012318461837BD4680BD00BF08070020D0
:10112000005400406C00024044000240E8050020EA
:10113000100700200C07002080B588B000AF786051
:101140000121082001F0E6FC0121012001F0C4FC8E
:101150007B68614A93421BD101214FF4001001F0DA
:10116000F7FCC023BB830323BB771C23FB7707F16A
:101170001C031946594800F071FE01214FF400107C
:1011800001F004FD00214FF4001001F0FFFC1BE012
:1011900001214FF4800001F0DBFC4FF44063BB837E
:1011A0000323BB771C23FB7707F11C0319464B482D
:1011B00000F054FE01214FF4800001F0E7FC002113
:1011C0004FF4800001F0E2FC00233B824BF6FF73FA
:1011D0007B822823BB824FF48063FB824FF48043E1
:1011E0003B833F4BFB6007F10C0319463A4803F081
:1011F000F5F93023BB8207F10C031946394803F097
:10120000EDF97B68344A934231D1374803F02CF82A
:10121000364B374A1A60354B00225A60334B102246
:101220009A60324B4FF6FF72DA60304B00221A613F
:101230002E4B80225A612D4B00229A612B4B0022AB
:10124000DA612A4B00221A62284B4FF440525A624C
:10125000264B00229A622549234803F0C1F825480D
:1012600003F002F82149234803F0BAF830E022489D
:1012700002F0FAFF1D4B214A1A601C4B00225A60F3
:101280001A4B10229A60194B4FF6FF72DA60174B17
:1012900000221A61154B80225A61144B00229A6178
:1012A000124B0022DA61114B00221A620F4B4FF4ED
:1012B00040525A620D4B00229A620C490E4803F0CC
:1012C0008FF80F4802F0D0FF08490D4803F088F866
:1012D00000BF2037BD4680BD00540040000C0140D7
:1012E000801A0600005800406C000240DC06002016
:1012F000105400408000024044000240105800405A
:101300005800024080B584B000AFF860B9607A60E0
:101310003B603B68002B2CD1BB682E4A53602D4BA1
:1013200010229A602B4A7B68D360FB682A4A93425A
:101330000FD1284B294A1A600021294803F08EF862
:101340002449274803F04CF80121254803F086F88A
:101350003BE0204B234A1A600021234803F07EF82B
:101360001C49214803F03CF801211F4803F076F89E
:101370002BE0BB68174A5360164B00229A60154A4F
:101380007B68D360FB68144A93420FD1114B134A18
:101390001A600021154803F061F80E49134803F064
:1013A0001FF80121114803F059F80EE0094B0D4ACE
:1013B0001A6000210E4803F051F806490C4803F06A
:1013C0000FF801210A4803F049F800BF1037BD4665
:1013D00080BD00BFDC0600200054004010540040D7
:1013E0006C0002401058004044000240800002405F
:1013F0005800024080B58AB002AF3B600346FB71E3
:101400000B46BB7113467B71BB793B737B79102B09
:1014100001D910237B710123FB770DE0FB7FFA7F5D
:10142000013A39680A44127807F120010B4403F8A5
:10143000142CFB7F0133FB77FA7F7B799A42EDD93D
:101440007B7901331A46FB795B00DBB207F10C01B3
:10145000009300230348FFF7FBFC034618462037A0
:10146000BD4680BD0054004080B584B002AF3B60F3
:101470000346FB710B46BB7113467B71FB795B0026
:10148000DBB2B91D0093002301220B48FFF7E0FCFB
:101490000346002B0BD07A79FB795B00DBB200931B
:1014A000002339680448FFF721FA034600E00023CF
:1014B00018460837BD4680BD0054004090B585B041
:1014C00000AF0446084611461A462346FB71034600
:1014D000BB710B467B7113463B7107F10E03B97963
:1014E000F8790122FFF7C0FF0346002B34D03B7987
:1014F000012202FA03F35A1E79793B79CB1A0133A0
:1015000002FA03F3FB7397F8202079793B79CB1A21
:10151000013302FA03F387F8203097F82020FB7B91
:10152000134087F8203097F90F30DB435AB2BB7B6A
:101530005BB213405BB2DBB2BB73BA7B97F820306F
:101540001343DBB2BB7307F10E03B979F8790122BB
:10155000FFF750FF034600E0002318461437BD464E
:1015600090BD00BF90B585B002AF04460846114655
:101570001A462346FB710346BB710B467B7113462B
:101580003B717A79B979F8793B7900930123FFF7B8
:1015900095FF034618460C37BD4690BD98B500AF81
:1015A000164B1B889BB203F02003002B23D0144B57
:1015B0001B889BB2DCB2114802F026FB0346DAB26C
:1015C000104B1A550E4B1B889BB201339AB20C4B31
:1015D0001A800B4B1B889AB20B4B1B889BB2D31AF9
:1015E0009BB2B3F5807F06D9074B1B889BB20133B2
:1015F0009AB2054B1A8000BF98BD00BF004800405A
:10160000EE05002018070020EC05002080B485B00E
:1016100000AF78607B68114A934214D1104B1B884D
:10162000FB81104B1B88BB810F4BBB600BE0FB8920
:10163000DBB2BA6813441B780A2B01D1012307E0FF
:10164000FB890133FB81BA89FB899A42EFD10023E0
:1016500018461437BD4680BC704700BF00480040A4
:10166000EC050020EE0500201807002080B487B0AC
:1016700000AFF860B9601346FB710023FB75FB688F
:10168000194A93422AD11BE0FB7DBA681344174ADA
:10169000128892B2D2B216498A5CD2B21A70FB7D1D
:1016A0000133FB75114B1B889BB201339AB20F4B70
:1016B0001A80FB7D013BBA6813441B780A2B0CD0BF
:1016C0000C4B1B889AB2094B1B889BB29A4205D9D6
:1016D000FA7DFB799A42D7D300E000BFFB7D184624
:1016E0001C37BD4680BC704700480040EC05002018
:1016F00018070020EE05002080B582B000AF7860AA
:1017000039607B681C4A934205D1012144F20400F0
:1017100001F000FA1AE07B68184A934209D10121CE
:101720004FF4003001F014FA0121042001F0F2F925
:101730000CE07B68124A934219D101214FF48020BA
:1017400001F006FA0121082001F0E4F9786800F0C0
:101750009FF8786800F016F83968786800F078F833
:10176000012240F22551786802F0F4F900E000BF50
:101770000837BD4680BD00BF00380140004400402E
:101780000048004080B584B000AF78607B682B4A89
:10179000934218D14FF40073BB811823FB730323CA
:1017A000BB7307F10C031946254800F057FB4FF4B3
:1017B0008063BB810423FB7307F10C0319462048A7
:1017C00000F04CFB36E07B681E4A934216D104239E
:1017D000BB811823FB730323BB7307F10C0319466A
:1017E000174800F03BFB0823BB810423FB7307F180
:1017F0000C031946124800F031FB1BE07B68124ACB
:10180000934217D14FF48063BB811823FB730323EA
:10181000BB7307F10C0319460C4800F01FFB4FF493
:101820000063BB810423FB7307F10C0319460748CF
:1018300000F014FB00BF1037BD4680BD00380140EA
:10184000000801400044004000480040000C0140F6
:1018500080B586B000AF786039603B68BB6000231C
:10186000BB810023FB8100233B820023BB820C232E
:101870007B8207F108031946786802F091F801218C
:10188000786802F047F900BF1837BD4680BD00BF39
:1018900080B584B000AF78607B68114A934202D172
:1018A00025233B730CE07B680E4A934202D126232A
:1018B0003B7305E07B680C4A93420DD127233B73B1
:1018C00000237B730023BB730123FB7307F10C031D
:1018D000184602F021FE00E000BF1037BD4680BD73
:1018E00000380140004400400048004080B584B00A
:1018F00000AFF860B9601346FB7110E0BB685A1C7A
:10190000BA601B789BB21946F86802F06BF900BF09
:101910004021F86802F088F90346002BF8D0FB79E3
:101920005A1EFA71002BE9D100BF1037BD4680BDA9
:1019300080B588B000AF0121042001F0EBF80F233F
:10194000BB831823FB770223BB7707F11C031946DF
:101950002E4800F083FA0121012001F0F9F8472315
:101960003B8200237B8240F6B833BB820023FB829C
:1019700000233B7607F1100319464FF08040FEF735
:10198000C5FB01214FF08040FEF73EFE3B460022A2
:101990001A605A609A60DA6060233B804FF47A7371
:1019A000FB8001237B8000233B813B4619464FF09F
:1019B0008040FEF727FC08214FF08040FEF744FEF0
:1019C0003B4619464FF08040FEF7A8FC08214FF037
:1019D0008040FEF755FE3B4619464FF08040FEF72B
:1019E00025FD08214FF08040FEF768FE3B46194672
:1019F0004FF08040FEF7A0FD08214FF08040FEF739
:101A000079FE00BF2037BD4680BD00BF0008014001
:101A100080B483B000AF78604FF080427B681B8851
:101A200003F57A739BB293864FF080427B68023352
:101A30001B8803F57A739BB213874FF080427B6853
:101A400004331B8803F57A739BB293874FF080426F
:101A50007B6806331B8803F57A739BB2A2F840308B
:101A600000BF0C37BD4680BC704700BF80B584B056
:101A700000AF78600B46FB70FB7803F00103002B8E
:101A800002D17B6800221A80FB7803F00203002B4E
:101A900002D17B6800225A80FB7803F00403002BFC
:101AA00002D17B680022DA80FB7803F00803002B68
:101AB00002D17B6800229A807B681B883B817B680F
:101AC0005B887B817B68DB88BB817B689B88FB8133
:101AD00007F108031846FFF79BFF00BF1037BD460C
:101AE00080BD00BF80B500AF154A154B1B6843F0A1
:101AF000010313601249124B5A68124B13404B609A
:101B00000F4A0F4B1B6823F0847323F48033136058
:101B10000B4A0B4B1B6823F480231360084A084BC5
:101B20005B6823F4FE035360054B4FF41F029A6079
:101B300000F00CF8044B4FF000629A6000BF80BDCB
:101B4000001002400000FFF800ED00E080B500AF9B
:101B500000F002F800BF80BD80B483B000AF002366
:101B60007B6000233B603A4A394B1B6843F4803367
:101B70001360374B1B6803F400333B607B68013311
:101B80007B603B68002B03D17B68B3F5A06FF0D17D
:101B90002F4B1B6803F40033002B02D001233B6062
:101BA00001E000233B603B68012B4BD1294A294BC4
:101BB0001B6843F010031360264A264B1B6823F072
:101BC00003031360234A234B1B6843F00203136093
:101BD0001F4A1F4B5B6853601D4A1D4B5B68536077
:101BE0001B4A1B4B5B6843F480635360184A184BD5
:101BF0005B6823F47C135360154A154B5B6843F410
:101C0000E8135360124A124B1B6843F08073136051
:101C100000BF0F4B1B6803F00073002BF9D00C4A78
:101C20000B4B5B6823F003035360094A084B5B6866
:101C300043F00203536000BF054B5B6803F00C03E5
:101C4000082BF9D100BF0C37BD4680BC704700BFE0
:101C5000001002400020024080B584B000AFF86060
:101C6000B9607A60FB681A68BB681B681946104641
:101C700005F07AF803461A467B681A60FB685A68D2
:101C8000BB685B681946104605F06EF803461A46B5
:101C90007B685A60FB689A68BB689B681946104667
:101CA00005F062F803461A467B689A6000BF103759
:101CB000BD4680BD80B582B000AF0323FB710A4BE7
:101CC0001B78FA799A4206D9074B1B780133DAB2AE
:101CD000054B1A7004E0044B00221A7002F0AEFDAE
:101CE0000837BD4680BD00BFF005002080B588B034
:101CF00000AF786007F114031946786801F094FB8F
:101D000007F10C0207F114031146184601F01CFC00
:101D100007F10C0303220F21184602F0F5FD00BF66
:101D20002037BD4680BD00BF80B58AB000AFF860E7
:101D3000384680E80E0007F11C031946F86801F0E8
:101D4000C5FA3A4607F11C031146184601F06EFC2D
:101D50003B681749184605F011F90346184605F087
:101D6000E9FA03461BB2BB827B681149184605F0AD
:101D700005F90346184605F0DDFA03461BB2FB825F
:101D8000BB680B49184605F0F9F80346184605F0FC
:101D9000D1FA03461BB23B8307F1140303220F2140
:101DA000184602F0B1FD00BF2837BD4680BD00BF18
:101DB0000000704280B588B000AF786007F114036E
:101DC0001946786801F082FA07F10C0207F1140352
:101DD0001146184601F0B8FB07F10C03032200215D
:101DE000184602F091FD00BF2037BD4680BD00BF00
:101DF00080B582B000AF114B7B60114B3B6007E0B8
:101E00003B681A1D3A607A68111D796012681A6081
:101E10003B680C4A9342F3D30B480C494FF0000245
:101E20008842B8BF40F8042BFADBFFF75BFE00F0F6
:101E300093FC00BF0837BD4680BD00BF397B00085A
:101E400000000020E0050020E005002048090020F7
:101E500080B400AF00BFBD4680BC704780B489B07D
:101E600000AF786039600023FB6100233B610023F1
:101E7000BB610023FB6000237B610023BB603B68E8
:101E8000DB7803F00F03FB613B68DB7803F01003A2
:101E9000002B05D03B689B781A46FB691343FB6116
:101EA0003B681B88DBB2002B44D07B681B687B61DE
:101EB0000023BB6138E00122BB6902FA03F3FB6037
:101EC0003B681B881A46FB6813403B613A69FB6814
:101ED0009A4226D1BB699B00FB600F22FB6802FA85
:101EE00003F3BB60BB68DB437A6913407B61FA692B
:101EF000FB6802FA03F37A6913437B613B68DB7882
:101F0000282B05D10122BB699A407B685A6108E001
:101F10003B68DB78482B04D10122BB699A407B687F
:101F20001A61BB690133BB61BB69072BC3D97B68ED
:101F30007A691A603B681B88FF2B46D97B685B680F
:101F40007B610023BB613AE0BB690833012202FADE
:101F500003F3FB603B681B881A46FB6813403B6138
:101F60003A69FB689A4227D1BB699B00FB600F224C
:101F7000FB6802FA03F3BB60BB68DB437A6913407A
:101F80007B61FA69FB6802FA03F37A6913437B61A8
:101F90003B68DB78282B05D1BB69083301229A40C6
:101FA0007B685A613B68DB78482B05D1BB690833F5
:101FB00001229A407B681A61BB690133BB61BB692E
:101FC000072BC1D97B687A695A6000BF2437BD46A8
:101FD00080BC704790B59BB000AFF860B9607A6084
:101FE0003B609E4B5B6883F00043F968184604F041
:101FF000C5FF03461C46994B9B68B968184604F018
:10200000BDFF03461946204604F0AEFE03461C46BB
:10201000924BDB687968184604F0B0FF0346194616
:10202000204604F0A1FE03464FF07C51184604F010
:10203000A5FF03467B66894B1B68F968184604F0C8
:102040009DFF03461C46854B9B687968184604F043
:1020500095FF03461946204604F088FE03461C46B9
:102060007E4BDB68B968184604F088FF03461946C2
:10207000204604F079FE03464FF07C51184604F0E8
:102080007DFF03463B66754B1B68B968184604F034
:1020900075FF03461C46714B5B687968184604F06F
:1020A0006DFF03461946204604F05EFE03461C46BB
:1020B0006A4BDB68F968184604F060FF034619466E
:1020C000204604F053FE03464FF07C51184604F0BE
:1020D00055FF0346FB65614B1B687968184604F0A1
:1020E0004DFF03461C465D4B5B68B968184604F01B
:1020F00045FF03461946204604F038FE03461C46B9
:10210000564B9B68F968184604F038FF0346194699
:10211000204604F029FE03464FF07C51184604F097
:102120002DFF0346BB654FF00001386805F0BAF893
:102130000346002B10D04FF00001B86F05F0B2F845
:102140000346002B08D04FF00001F86F05F0AAF805
:102150000346002B40F028823968386804F00EFFEF
:1021600003461C46B96FB86F04F008FF03461946D2
:10217000204604F0FBFD03461C46F96FF86F04F09F
:10218000FDFE03461946204604F0F0FD03461846BE
:1021900001F010FA7865796D386804F0EFFE0346B7
:1021A0003B60796DB86F04F0E9FE0346BB67796D5B
:1021B000F86F04F0E3FE0346FB67284B1B681946E3
:1021C000184604F0D3FD03463B65244B5B68194673
:1021D000184604F0CBFD0346FB64204B9B68194670
:1021E000184604F0C3FD0346BB641C4BDB6819466C
:1021F000184604F0BBFD03467B64184B1B684FF088
:102200008141184604F0BAFE03463B64134B5B68F9
:102210004FF08141184604F0B1FE0346FB630F4BBB
:102220009B684FF08141184604F0A8FE0346BB634B
:102230000A4B5B684FF08241184604F09FFE03464C
:102240007B63064B9B684FF08241184604F096FE74
:1022500003463B63014B1A6802E000BF0000002008
:102260009A4B1B681946104604F088FE0346FB6231
:10227000964B5A68954B5B681946104604F07EFEF3
:102280000346BB62914B9A68904B9B681946104677
:1022900004F074FE03467B628C4BDA688B4BDB6880
:1022A0001946104604F06AFE03463B62796A386CB0
:1022B00004F064FE03461C463968B86C04F05EFE08
:1022C00003461946204604F051FD03461C46B96AF0
:1022D000386C04F053FE03461946204604F046FDD0
:1022E00003461C46B96FF86C04F048FE03461946D5
:1022F000204604F039FD0346FB61396AF86B04F0AF
:102300003DFE03461C463968786C04F037FE0346F0
:102310001946204604F028FD03461C464FF0814133
:10232000F86A04F02BFE03461A46684B5B681946B0
:10233000104604F023FE03461946204604F016FD1D
:1023400003461C46B96F386D04F018FE0346194663
:10235000204604F009FD0346F96B184604F004FD1D
:1023600003461C46B96A786B04F008FE034619461A
:10237000204604F0FBFC03461C46796A786B04F0A7
:10238000FDFD03461946204604F0F0FC03461C46BA
:10239000F96FF86B04F0F2FD03461946204604F08D
:1023A000E5FC0346BB614FF08141F86A04F0E6FDAD
:1023B00003461A46454B9B681946104604F0DEFD5D
:1023C00003461C463968386D04F0D8FD03461946AB
:1023D000204604F0CBFC03461C46396AB86B04F077
:1023E000CDFD03461946204604F0C0FC03461C46BA
:1023F000B96F786C04F0C2FD03461946204604F01C
:10240000B3FC0346B96B184604F0AEFC03461C4609
:10241000B96A386B04F0B2FD03461946204604F051
:10242000A5FC03461C46796A386B04F0A7FD0346F9
:102430001946204604F09AFC03461C46F96FB86B17
:1024400004F09CFD03461946204604F08FFC034629
:102450007B614FF08141B86A04F090FD03461A4653
:102460001A4BDB681946104604F088FD03461C46EB
:102470003968F86C04F082FD03461946204604F0E2
:1024800073FC03461C464FF08141786A04F076FDE8
:1024900003461A460D4BDB681946104604F06EFDE4
:1024A00003461946204604F061FC03461C46B96FFA
:1024B000B86C04F063FD03461946204604F054FC52
:1024C00003463B61F969F86902E000BF00000020A3
:1024D00004F054FD03461C46B969B86904F04EFD8A
:1024E00003461946204604F041FC03461C46796920
:1024F000786904F043FD03461946204604F036FC93
:1025000003461C463969386904F038FD034619460C
:10251000204604F02BFC0346184601F04BF8786582
:10252000796DF86904F02AFD0346FB61796DB8699D
:1025300004F024FD0346BB61796D786904F01EFD4B
:1025400003467B61796D386904F018FD03463B61F1
:102550007049F86904F012FD03461946786E04F0DC
:1025600003FC03467B666B49B86904F007FD03462C
:102570001946386E04F0F8FB03463B6665497869F6
:1025800004F0FCFC03461946F86D04F0EDFB03462D
:10259000FB656049386904F0F1FC03461946B86DE3
:1025A00004F0E2FB0346BB655B4B1C685B49786E3D
:1025B00004F0E4FC03465A49184604F093FD034630
:1025C0001946204604F0D2FB03461A46524B1A60C5
:1025D000514B5C685149386E04F0D0FC03465049B9
:1025E000184604F07FFD03461946204604F0BEFB62
:1025F00003461A46484B5A60474B9C684749F86D5A
:1026000004F0BCFC03464649184604F06BFD034643
:102610001946204604F0AAFB03461A463E4B9A6030
:102620003D4BDC683D49B86D04F0A8FC03463C49CD
:10263000184604F057FD03461946204604F096FB61
:1026400003461A46344BDA60334B1A68324B1B6828
:102650001946104604F092FC03461C462E4B5A685D
:102660002D4B5B681946104604F088FC034619465A
:10267000204604F07BFB03461C46274B9A68264BFA
:102680009B681946104604F079FC0346194620461B
:1026900004F06CFB03461C461F4BDA681E4BDB68DC
:1026A0001946104604F06AFC03461946204604F019
:1026B0005DFB0346184600F07DFF7865164B1B68EE
:1026C000796D184604F05AFC03461A46124B1A60FC
:1026D000114B5B68796D184604F050FC03461A46AE
:1026E0000D4B5A600C4B9B68796D184604F046FC04
:1026F00003461A46084B9A60074BDB68796D18460B
:1027000004F03CFC03461A46034BDA6000BF6C370A
:10271000BD4690BDCDCCCC3D0000002000007A45E8
:102720000024744990B587B000AF786007F10803C2
:102730001A460749074800F0DBFC7B681C4607F196
:1027400008030FCB84E80F0078681C37BD4690BDA6
:102750001000002000000020B0B588B002AF00F0EB
:102760007DF800F0B1F83449344801F00FFC324BE9
:102770001868314B5968304B9C68304B1D682F4BA3
:102780005B682E4A9268019200932B462246FFF71F
:1027900021FC3B1D1846FFF7C5FF294B294A2A4952
:1027A0002A4800F0BFF83B1D294A1946274800F087
:1027B0009FFC244BB3F900309BB2381D254A01928F
:1027C0000093214B214A1C4900F046FB2048FFF7AB
:1027D0008DFA194B381D0ECBFFF7A6FA1C48FFF7F0
:1027E000E9FA00F057FCFEF719F802461A4B1B688D
:1027F000D31A7B617B691BB20C21184602F0B0F83A
:10280000FFF758FA00BFFEF709F80246124B1B68A3
:10281000D31AB3F57A6FF6D30F4B1B6803F57A63BF
:102820000D4A13600A2002F0DFF80346DBB21946B6
:102830000848FFF71BF994E77008002038080020CB
:1028400018080020640800202C0800201C08002024
:102850004408002068080020F405002080B500AF7F
:10286000FEF704F8144801F09BFF1448FEF764FCDF
:1028700001F0F6F9062001F09DFA022001F018FAA5
:10288000002001F045FA0E48FEF71CF840F6B8307B
:1028900001F01EFB032001F0FDFB3F2002F026F8B3
:1028A000FFF746F800F072FBFDF7B8FF0246054B54
:1028B0001A6000BF80BD00BF0048004000540040C7
:1028C00040420F00F405002080B582B000AF01F057
:1028D00079FF0C2002F09AF80346002B0ED03B46FD
:1028E00002220B21184602F053F8B7F900301B04FE
:1028F000B7F902201343184601F0F8FF032002F055
:1029000085F80346002B08D0032002F06DF803463B
:10291000FB80FB88184600F00BFB00BF0837BD4664
:1029200080BD00BF90B484B000AFF860B9607A6039
:102930003B60FB680C4A1C4613460FCB84E80F0033
:10294000BB680A4A07CA83E80700094BB3F90020AD
:102950007B681A80074B93F900203B681A7000BF10
:102960001037BD4690BC70471C0800202C08002082
:102970007C0800202000002080B487B000AF786081
:1029800000237B6100233B610023FB600023BB60CD
:102990004C4B5B6803F00C037B617B69042B07D015
:1029A000082B09D0002B33D17B68474A1A6033E0EB
:1029B0007B68454A1A602FE0424B5B6803F4701352
:1029C0003B61404B5B6803F48033FB603B699B0CCD
:1029D00002333B61FB68002B06D13B693B4A02FB9B
:1029E00003F27B681A6017E0364B5B6803F4003330
:1029F000002B06D03B69354A02FB03F27B681A6064
:102A00000AE03B69304A02FB03F27B681A6003E08C
:102A10007B682D4A1A6000BF2A4B5B6803F0F00305
:102A20007B617B691B097B61294A7B6913441B78A5
:102A3000DBB2BB607B681A68BB68DA407B685A60AF
:102A4000204B5B6803F4E0637B617B691B0A7B615D
:102A50001F4A7B6913441B78DBB2BB607B685A68F2
:102A6000BB68DA407B689A60164B5B6803F460537E
:102A70007B617B69DB0A7B61154A7B6913441B78A8
:102A8000DBB2BB607B685A68BB68DA407B68DA609F
:102A90000C4B5B6803F440437B617B699B0B7B6160
:102AA0000C4A7B6913441B78DBB2BB607B68DA6835
:102AB000BB68B2FBF3F27B681A6100BF1C37BD46EE
:102AC00080BC70470010024000127A0000093D00EF
:102AD000240000203400002080B483B000AF786070
:102AE0000B46FB70FB78002B06D00949084B5A694E
:102AF0007B6813434B6106E00549054B5A697B68C7
:102B0000DB4313404B6100BF0C37BD4680BC7047B0
:102B10000010024080B483B000AF78600B46FB70B9
:102B2000FB78002B06D00949084B9A697B68134350
:102B30008B6106E00549054B9A697B68DB431340CE
:102B40008B6100BF0C37BD4680BC7047001002404F
:102B500080B483B000AF78600B46FB70FB78002B2D
:102B600006D00949084BDA697B681343CB6106E05C
:102B70000549054BDA697B68DB431340CB6100BF35
:102B80000C37BD4680BC70470010024080B483B053
:102B900000AF78600B46FB70FB78002B06D009492C
:102BA000084B1A697B6813430B6106E00549054B26
:102BB0001A697B68DB4313400B6100BF0C37BD46CD
:102BC00080BC70470010024090B585B000AF3C1D3E
:102BD00084E807007B807C887B68BA6811461846C9
:102BE00004F0C4F803461A46FB681946104604F080
:102BF000BDF80346184604F09DFB03461BB29BB28A
:102C0000E31A9AB23B6A1A807C887B68BA681146DC
:102C1000184604F0A9F803461A46FB681946104600
:102C200004F0A2F80346184604F084FB03461BB2E6
:102C30009BB2E31A9AB23B6A5A807C88BB687A6876
:102C40001146184604F090F803461A46FB681946E8
:102C5000104604F089F80346184604F06BFB03465F
:102C60001BB29BB2E31A9AB23B6A9A807C887B685B
:102C700083F00043BA681146184604F075F803461D
:102C80001A46FB681946104604F070F803461846C9
:102C900004F050FB03461BB29BB2E31A9AB23B6AA4
:102CA000DA8000BF1437BD4690BD00BF80B592B03A
:102CB00004AFF860B9603B601346FB71FB681B68AA
:102CC0004FF00001184604F0F7FA0346002B17D026
:102CD000FB681B6883F00042FB681A60FB685B6856
:102CE00083F00042FB685A60FB689B6883F00042F7
:102CF000FB689A60FB68DB6883F00042FB68DA607F
:102D0000BB681A684D4B1B681946104604F02CF836
:102D10000346BB62BB685A68484B5B68194610465D
:102D200004F022F80346FB62BB689A68434B9B6839
:102D30001946104604F018F803463B633F4BBA6847
:102D400007CA83E80700BB6A10223D49184601F014
:102D5000A5FE0346BB62FB6A10223A49184601F001
:102D60009DFE0346FB623B6B10223749184601F07B
:102D700095FE03463B63042001F036FE03465B42AA
:102D8000184604F0A7F803467B63FB685868BB68E5
:102D90001968BA6A07F11C030293FB7901932B4B64
:102DA00000937B6B01F004FA02463B681A60FB68F3
:102DB0009868BB685968FA6A07F11C0304330293E8
:102DC000FB790193224B00937B6B01F0F1F90246F2
:102DD0003B685A60FB68D868BB6899683A6B07F132
:102DE0001C0308330293FB7901931A4B00937B6B0E
:102DF00001F0DEF902463B689A60FB69184604F070
:102E000099FA03461BB2BB823B6A184604F092FA59
:102E100003461BB2FB827B6A184604F08BFA03461A
:102E20001BB23B8307F1140303221221184601F061
:102E30006BFD00BF3837BD4680BD00BFF8050020E0
:102E4000040600204406002084060020800800209C
:102E5000A8080020D008002080B592B002AFF8602A
:102E6000B9607A603B60B7F84830952B0CD8FB6CA2
:102E700000229A80FB6C00221A80FB6C0022DA8010
:102E8000FB6C00225A804BE007F120031A46F968D8
:102E9000786800F02DF9002387F83F30B7F8483004
:102EA000FA2B14D93B6A23F00043184601F0BAFE0E
:102EB0000346184603F016FC1BA3D3E9002303F0D6
:102EC000D7FE0346002B02D0012387F83F303B6A30
:102ED00083F000433B6207F120033968184600F095
:102EE0004BFC3B6A83F000433B6207F114031A4634
:102EF0003968B868FEF7B0FE07F1300397F83F2055
:102F000007F1140107F12000FFF7D0FEB7F94820C0
:102F1000FB6C0093134607F1300207CAFFF754FE1B
:102F20004037BD4680BD00BFF42DF873DEECDB3FBB
:102F300090B585B000AF0346FB80FB885B0B9BB26E
:102F4000DBB203F00703FB73FB889B0A9BB2DBB287
:102F500003F00703BB73FB88C3F30903BB81FA7B50
:102F600013469B001344DB00074A9C18BB89184694
:102F700003F0ACFF0246BB7B1946204601F03AF94C
:102F800000BF1437BD4690BD8008002080B483B0D8
:102F900000AF0023FB710023FB7148E0FA79284958
:102FA00013469B001344DB000B44264A1A60FA794F
:102FB000234913469B001344DB000B440433224A8D
:102FC0001A60FA791E4913469B001344DB000B4438
:102FD00008331E4A1A60FA79194913469B001344B4
:102FE000DB000B440C331A4A1A60FA791449134671
:102FF0009B001344DB000B441033164A1A60FA7925
:103000000F4913469B001344DB000B441433104A52
:103010001A60FA790A4913469B001344DB000B44FB
:1030200024334FF000021A60FB790133FB71FB7906
:10303000022BB3D900BF0C37BD4680BC704700BF20
:1030400080080020000020430000A040000048420B
:103050000000C8420000204280B582B000AF786016
:103060007968094801F0DAF87B68063319460748A1
:1030700001F0D4F87B680C331946054801F0CEF80E
:1030800000BF0837BD4680BD80080020A80800208A
:10309000D008002080B586B000AF3B1D1846FFF772
:1030A000DBFF3B1D09220321184601F02DFC00BF68
:1030B0001837BD4680BD00BF80B500AF094B5B69C6
:1030C00003F40063002B0BD0FDF7A8FB0246064B70
:1030D0001B68D31A054A1360024B4FF400625A6111
:1030E00000BF80BD00040140C8060020C4060020C7
:1030F00090B585B000AFF860B9607A60FB681A6877
:10310000BB681B681946104603F038FF03461C468F
:10311000FB685A68BB685B681946104603F02EFFCF
:1031200003461946204603F01FFE03461C46FB6873
:103130009A68BB689B681946104603F01FFF034658
:103140001946204603F010FE03461C46FB68DA6869
:10315000BB68DB681946104603F010FF03461946AA
:10316000204603F001FE03461A467B681A60FB689E
:103170009A68BB68DB681946104603F0FFFE0346F9
:103180001C46FB68DA68BB689B681946104603F06A
:10319000F5FE03461946204603F0E6FD03461C46AD
:1031A000FB681A68BB685B681946104603F0E6FEC8
:1031B00003461946204603F0D9FD03461C46FB682A
:1031C0005A68BB681B681946104603F0D7FE0346D1
:1031D0001946204603F0CAFD03461A467B685A602A
:1031E000FB68DA68BB685B681946104603F0C6FEE8
:1031F00003461C46FB685A68BB68DB6819461046E4
:1032000003F0BCFE03461946204603F0ADFD03461D
:103210001C46FB681A68BB689B681946104603F099
:10322000ADFE03461946204603F0A0FD03461C46AA
:10323000FB689A68BB681B681946104603F09EFE3F
:1032400003461946204603F091FD03461A467B6863
:103250009A60FB685A68BB689B681946104603F081
:103260008DFE03461C46FB689A68BB685B6819467E
:10327000104603F083FE03461946204603F074FD12
:1032800003461C46FB681A68BB68DB681946104693
:1032900003F074FE03461946204603F067FD03461B
:1032A0001C46FB68DA68BB681B681946104603F0C9
:1032B00065FE03461946204603F058FD03461A46AC
:1032C0007B68DA6000BF1437BD4690BDB0B582B0F0
:1032D00000AF786039607B681A687B685B68194664
:1032E000104603F04BFE03461C467B689A687B68D9
:1032F000DB681946104603F041FE03461946204696
:1033000003F034FD03461C467B685A687B685B68A3
:103310001946104603F032FE03461D467B689A6844
:103320007B689B681946104603F028FE0346194641
:10333000284603F01BFD034619464FF07C5003F06E
:1033400013FD03461946204601F010FD02463B6876
:103350001A607B681A687B689B681946104603F000
:103360000DFE03461C467B68DA687B685B6819467D
:10337000104603F003FE03461946204603F0F4FC12
:1033800003461946184603F0F1FC0346184601F0BF
:103390009BFC034683F000423B685A607B681A68D6
:1033A0007B68DB681946104603F0E8FD03461C46BF
:1033B0007B685A687B689B681946104603F0DEFDFF
:1033C00003461946204603F0D1FC03461C467B68A1
:1033D0009A687B689B681946104603F0CFFD034648
:1033E0001D467B68DA687B68DB681946104603F087
:1033F000C5FD03461946284603F0B8FC03461946A6
:103400004FF07C5003F0B0FC03461946204601F013
:10341000ADFC034683F000423B689A6000BF08376A
:10342000BD46B0BD0000000080B584B000AF78603C
:1034300039607B681B684FF00001184603F03CFFC1
:103440000346002B17D07B681B6883F000427B6823
:103450001A607B685B6883F000427B685A607B6817
:103460009B6883F000427B689A607B68DB6883F02E
:1034700000427B68DA607B681B68184601F0D2FB6B
:10348000F860F86803F02EF92DA3D3E9002303F0C8
:10349000EFFB0346002B0CD07B685A683B681A6030
:1034A0007B689A683B685A607B68DA683B689A6018
:1034B0003FE07B681A687B681B681946104603F07A
:1034C0005DFD034619464FF07E5003F04DFC034668
:1034D000184600F06FF8B8607B685B68F9681846BA
:1034E00003F04CFD0346B968184603F047FD034658
:1034F0001A463B681A607B689B68F968184603F0B7
:103500003DFD0346B968184603F038FD03461A46E8
:103510003B685A607B68DB68F968184603F02EFD4B
:103520000346B968184603F029FD03461A463B686E
:103530009A6000BF1037BD4680BD00BFAFF300806A
:103540009A9999999999A93F80B582B000AF78600E
:1035500039607B681B681649184603F00FFD034667
:10356000184603F0E7FE03461AB23B681A807B68F0
:103570005B680F49184603F001FD0346184603F047
:10358000D9FE03461AB23B685A807B689B6808499B
:10359000184603F0F3FC0346184603F0CBFE03463F
:1035A0001AB23B689A8000BF0837BD4680BD00BF95
:1035B000F3DB564580B586B000AF78604FF07C51A4
:1035C000786803F0DBFC03467B617B683B6107F1B5
:1035D00010031B68FB60FB685A10134B9B1AFB60BF
:1035E00007F10C031B683B613B697969184603F0DE
:1035F000C5FC03461A463B691946104603F0BEFC5B
:10360000034619464FF07F5003F0AEFB03461A46BF
:103610003B691946104603F0B1FC03463B613B6928
:1036200018461837BD4680BDDF59375F90B58BB05F
:1036300000AF786039607B689B68184601F0B4FA87
:1036400078627B681B68184601F0AEFA38627B68C6
:103650009B68184601F06CFAF8617B681B68184695
:1036600001F066FAB861B9694FF07E5003F03AFD97
:1036700003467B613B681B68F969184603F07EFCD2
:1036800003461C463B685B68796A184603F076FC83
:1036900003461946204603F069FB0346796918463C
:1036A00003F06CFC0346BB607B6A83F00043B9699E
:1036B000184603F063FC03461A463B681B6819462C
:1036C000104603F05BFC03461C46B969F86903F039
:1036D00055FC03461A463B685B681946104603F0E2
:1036E0004DFC03461946204603F040FB034679692A
:1036F000184603F043FC0346FB60396AF86903F09F
:103700003DFC03461A463B681B681946104603F009
:1037100035FC03461C46396A786A03F02FFC0346E1
:103720001A463B685B681946104603F027FC0346BF
:103730001946204603F01AFB03461C463B689B686B
:10374000B969184603F01AFC03461946204603F0EF
:103750000BFB03467969184603F010FC03463B61F6
:103760003B681C4607F1080393E8070084E807005C
:1037700000BF2C37BD4690BD90B58FB000AF7860CC
:1037800039607B681A687B685B681946104603F0ED
:10379000F5FB03467B637B681A687B689B68194668
:1037A000104603F0EBFB03463B637B681A687B68BB
:1037B000DB681946104603F0E1FB0346FB627B68B9
:1037C0005A687B685B681946104603F0D7FB0346CE
:1037D000BB627B685A687B689B681946104603F099
:1037E000CDFB03467B627B685A687B68DB681946C1
:1037F000104603F0C3FB03463B627B689A687B6814
:103800009B681946104603F0B9FB0346FB617B68D1
:103810009A687B68DB681946104603F0AFFB0346E5
:10382000BB617B68DA687B68DB681946104603F089
:10383000A5FB03467B613B681B683B613B685B689B
:10384000FB603B689B68BB60F9694FF07C5003F0FC
:103850008BFA03467969184603F086FA03463969FC
:10386000184603F08BFB03461C46F96A786A03F09E
:103870007BFA0346F968184603F080FB03461946B5
:10388000204603F073FA03461C46396B386A03F08E
:103890006DFA0346B968184603F070FB03461946F3
:1038A000204603F063FA03461946184603F05EFA11
:1038B00003461A463B681A60F96A786A03F056FABA
:1038C00003463969184603F059FB03461C46B96A9A
:1038D0004FF07C5003F048FA03467969184603F02C
:1038E00043FA0346F968184603F048FB03461946B5
:1038F000204603F03BFA03461C46796BB86903F097
:1039000033FA0346B968184603F038FB03461946F4
:10391000204603F02BFA03461946184603F026FA10
:1039200003461A463B685A60396B386A03F01CFA42
:1039300003463969184603F021FB03461C46796BA0
:10394000B86903F013FA0346F968184603F016FB4A
:1039500003461946204603F009FA03461C46B96A95
:103960004FF07C5003F000FA0346F969184603F063
:10397000FBF90346B968184603F000FB03461946F5
:10398000204603F0F3F903461946184603F0EEF912
:1039900003461A463B689A6000BF3C37BD4690BD5F
:1039A00080B58CB000AF786039600023FB620023E3
:1039B000BB6200237B6200233B620023FB617B68C8
:1039C000FB617B681B8A9BB2FB62FA6A4CF6FF7351
:1039D0001340FB623B68DB881A46FB6A1343FB62B9
:1039E000FB6A9AB27B681A827B689B899BB2FB62F6
:1039F000FA6A4EF6F3131340FB623B689A883B6801
:103A00001B8913439AB23B685B8913439BB21A46E6
:103A1000FB6A1343FB62FB6A9AB27B689A817B68FC
:103A20009B8A9BB2FB62FA6A4FF6FF431340FB622C
:103A30003B689B891A46FB6A1343FB62FB6A9AB296
:103A40007B689A8207F108031846FEF795FFFB6929
:103A50002E4A934202D17B69BB6201E03B69BB62A3
:103A60007B689B899BB21BB2002B0CDABA6A1346A7
:103A70009B0013449A001A443B681B685B00B2FB2E
:103A8000F3F37B620BE0BA6A13469B0013449A007F
:103A90001A443B681B689B00B2FBF3F37B627B6AB2
:103AA0001B4AA2FB03235B091B01FB62FB6A1B0988
:103AB000642202FB03F37A6AD31A3B627B689B8918
:103AC0009BB21BB2002B0CDA3B6ADB003233104A8C
:103AD000A2FB03235B0903F00703FA6A1343FB62AB
:103AE0000BE03B6A1B013233094AA2FB03235B094B
:103AF00003F00F03FA6A1343FB62FB6A9AB27B6816
:103B00001A8100BF3037BD4680BD00BF003801407C
:103B10001F85EB5180B483B000AF78600B46FB701B
:103B2000FB78002B08D07B689B899BB243F4005341
:103B30009AB27B689A8107E07B689B899BB223F4E9
:103B400000539AB27B689A8100BF0C37BD4680BC97
:103B5000704700BF80B487B000AF78600B467B80B1
:103B600013467B7000233B610023FB600023BB6096
:103B700000237B617B687B617B88DBB25B09DBB206
:103B80003B617B8803F01F03FB600122FB6802FAA4
:103B900003F3BB603B69012B03D17B690C337B6171
:103BA00009E03B69022B03D17B6910337B6102E0A2
:103BB0007B6914337B617B78002B06D07B697A6943
:103BC0001168BA680A431A6006E07B697A6911686D
:103BD000BA68D2430A401A6000BF1C37BD4680BC99
:103BE000704700BF80B483B000AF78600B467B8025
:103BF0007B88C3F308039AB27B689A8000BF0C37B6
:103C0000BD4680BC704700BF80B483B000AF786011
:103C10007B689B889BB2C3F308039BB218460C37A2
:103C2000BD4680BC704700BF80B485B000AF7860EF
:103C30000B467B800023FB737B681B889AB27B88D2
:103C400013409BB2002B02D00123FB7301E0002341
:103C5000FB73FB7B18461437BD4680BC704700BF22
:103C600080B500AF064B68221A70012000F00AF8F8
:103C700000F08CF8002000F077F800BF80BD00BF96
:103C8000F808002080B584B002AF0346FB71064BF4
:103C90001878FB790093032302226B21FDF70EFCB9
:103CA00000BF0837BD4680BDF808002000000000B6
:103CB00090B585B002AF0346FB71FB79013318461E
:103CC00002F0FEFC0EA3D3E9002302F05FFD0346E1
:103CD0000C461846214602F0F3FF02460A4B1A60D2
:103CE0000A4B1878FB790093022304221B21FDF76D
:103CF000E5FB00BF0C37BD4690BD00BFAFF30080B1
:103D000021205F420587273F38000020F808002067
:103D100090B585B002AF0346FB71FB7901331846BD
:103D200002F0CEFC4FF000020C4B02F02FFD0346D8
:103D30000C461846214602F0C3FF0246084B1A60A3
:103D4000084B1878FB790093022304221C21FDF70D
:103D5000B5FB00BF0C37BD4690BD00BF00A0AE3F15
:103D60003C000020F808002080B582B000AF034678
:103D7000FB71054B1878FB7906226B21FDF7F2FBEE
:103D800000BF0837BD4680BDF808002080B500AFF1
:103D9000074B1878022301223721FDF765FB044BFE
:103DA0001878002301226A21FDF75EFB00BF80BD69
:103DB000F808002080B584B002AF0346FB71064BC3
:103DC0001878FB790093032302221A21FDF776FB72
:103DD00000BF0837BD4680BDF808002080B588B018
:103DE00000AFF860B9607A603B60354B187807F136
:103DF00010030E223B21FDF737FB0346FB773B7C8C
:103E00001B021AB27B7C1BB213431AB2FB681A80E6
:103E1000BB7C1B021AB2FB7C1BB213431AB2BB68F9
:103E20001A803B7D1B021AB27B7D1BB213431AB270
:103E30007B681A803B7E1B021AB27B7E1BB2134347
:103E40001AB23B681A80BB7E1B021AB2FB7E1BB201
:103E500013431AB2BB6A1A803B7F1B021AB27B7FE4
:103E60001BB213431AB2FB6A1A803B68B3F90030E5
:103E70009AB2144BB3F900309BB2D31A9BB21AB268
:103E80003B681A80BB6AB3F900309AB20E4BB3F9A3
:103E900000309BB2D31A9BB21AB2BB6A1A80FB6A7B
:103EA000B3F900309AB2094BB3F900309BB2D31A80
:103EB0009BB21AB2FB6A1A8000BF2037BD4680BD94
:103EC000F8080020CC060020CE060020D0060020F6
:103ED00090B58DB002AF0346FB8000237B620023C8
:103EE0003B620023FB610023BB6100237B622AE06D
:103EF00007F10C039C1D07F10C031A1D07F10C03BD
:103F0000991C07F10C0007F10C030A33019307F128
:103F10000C03083300932346FFF760FFB7F9123014
:103F20001A463B6A13443B62B7F914301A46FB69E0
:103F30001344FB61B7F916301A46BB691344BB61E1
:103F40007B6A01337B62FA887B6A9A42D0DCFB8809
:103F50003A6A92FBF3F31AB2094B1A80FB88FA69AA
:103F600092FBF3F31AB2074B1A80FB88BA6992FBF3
:103F7000F3F31AB2044B1A8000BF2C37BD4690BD34
:103F8000CC060020CE060020D006002090B589B0D7
:103F900002AF7860396007F10C039C1D07F10C0338
:103FA0001A1D07F10C03991C07F10C0007F10C0313
:103FB0000A33019307F10C03083300932346FFF7FC
:103FC0000DFFB7F90C30184602F084FF02462F4B64
:103FD0001B681946104602F0D1FF03461A467B685B
:103FE0001A60B7F90E30184602F074FF0246274BEC
:103FF0001B681946104602F0C1FF03461A467B684B
:104000005A60B7F91030184602F064FF02461F4BA1
:104010001B681946104602F0B1FF03461A467B683A
:104020009A60B7F91230184602F054FF0246184B56
:104030001B681946104602F0A1FF03461A463B686A
:104040001A60B7F91430184602F044FF0246104BCC
:104050001B681946104602F091FF03461A463B685A
:104060005A60B7F91630184602F034FF0246084B82
:104070001B681946104602F081FF03461A463B684A
:104080009A6000BF1C37BD4690BD00BF3C000020B9
:104090003800002080B582B000AF0346FB71FB7989
:1040A000013BDBB2FB71054B1878FB1D0122192186
:1040B000FDF7A0F900BF0837BD4680BDF808002015
:1040C00090B585B000AFF860B9607A60FB70FB789E
:1040D000002B13D07B685C6A3349F86802F04EFF0E
:1040E00003463249184602F0FDFF034619462046B2
:1040F00002F03CFE03461A467B685A627B685C6AA3
:104100007B681A697B685B681946104602F0EAFF13
:1041100003461946204600F09FFC02467B685A621F
:104120007B681B68F968184602F028FF03461A46A8
:104130007B68DB681946104600F08EFC02467B68FF
:104140009A617B685A6A7B685B681946104602F080
:1041500015FF03461A467B68DA617B689B68B9687D
:10416000184602F00BFF03461A467B685B69194646
:10417000104600F071FC02467B681A627B689A69FF
:104180007B68DB691946104602F0F0FD03461A46CB
:104190007B681B6A1946104602F0E8FD0346184684
:1041A0001437BD4690BD00BF00007A450024744915
:1041B00080B586B000AFF860B9607A603B6097F870
:1041C00024303A6AB968F868FFF77AFF786139688D
:1041D000786802F0D3FE03461A46BB6A1A60BB6ACF
:1041E0001B687969184602F0C1FD03461846183766
:1041F000BD4680BD80B485B000AFF8600B467A60E4
:10420000FB72FB7A052B04D8FA7AFB68796843F8CD
:10421000221000BF1437BD4680BC704790B583B0F4
:1042200000AF786039607B689B69184603F082F8BC
:1042300003461AB23B681A803B689C1C7B68DB69AA
:10424000184603F077F803461BB223803B681C1D19
:104250007B681B6A184603F06DF803461BB2238087
:1042600000BF0C37BD4690BD80B483B000AF78600E
:104270007B681A684FF6FE7313407A6813607B6898
:1042800000221A607B6800225A607B6800229A60D4
:104290007B680022DA607B68434A934206D1434A36
:1042A000424B5B6843F00F03536077E07B68404A02
:1042B000934206D13D4A3D4B5B6843F0F0035360A7
:1042C0006CE07B683B4A934206D1384A374B5B68C7
:1042D00043F47063536061E07B68374A934206D1D0
:1042E000324A324B5B6843F47043536056E07B685C
:1042F000324A934206D12D4A2C4B5B6843F470231B
:1043000053604BE07B682E4A934206D1274A274BE5
:104310005B6843F47003536040E07B68294A934232
:1043200006D1224A214B5B6843F07063536035E04D
:104330007B68254A934206D1244A244B5B6843F0AC
:104340000F0353602AE07B68214A934206D11F4A3B
:104350001E4B5B6843F0F00353601FE07B681D4A0F
:10436000934206D1194A194B5B6843F4706353605A
:1043700014E07B68184A934206D1144A134B5B68D9
:1043800043F47043536009E07B68144A934205D1BB
:104390000E4A0E4B5B6843F47023536000BF0C372A
:1043A000BD4680BC704700BF0800024000000240CC
:1043B0001C0002403000024044000240580002400D
:1043C0006C000240800002400804024000040240E9
:1043D0001C040240300402404404024058040240DD
:1043E00080B485B000AF786039600023FB607B68E3
:1043F0001B68FB60FB6823F4FF4323F07003FB6042
:104400003B689A683B681B6A1A433B681B691A43FE
:104410003B685B691A433B689B691A433B68DB69ED
:104420001A433B685B6A1A433B689B6A1343FA680A
:104430001343FB607B68FA681A603B68DA687B6844
:104440005A603B681A687B689A603B685A687B6868
:10445000DA6000BF1437BD4680BC704780B483B0BB
:1044600000AF78600B46FB70FB78002B06D07B68B2
:104470001B6843F001027B681A6006E07B681A68DB
:104480004FF6FE7313407A68136000BF0C37BD46C9
:1044900080BC704780B485B000AF78600023FB73A8
:1044A0000023BB607B6803F08053002B03D00B4BD1
:1044B0001B68BB6002E00A4B1B68BB60BA687B6884
:1044C0001340002B02D00123FB7301E00023FB7398
:1044D000FB7B18461437BD4680BC70470004024081
:1044E0000000024080B483B000AF78607B6803F0C6
:1044F0008053002B03D0064A7B68536002E0054AD4
:104500007B68536000BF0C37BD4680BC704700BF5E
:10451000000402400000024080B487B000AF786021
:1045200000237B6100233B610F23FB607B68DB780A
:10453000002B3AD0274BDB68DB4303F4E0631B0A14
:104540007B617B69C3F104033B61FA687B6922FAF2
:1045500003F3FB607B685B781A463B6902FA03F35E
:104560007B617B689B781A46FB6813407A6913432A
:104570007B617B691B017B61174A7B681B787969CA
:10458000C9B213440A4683F80023134A7B681B7898
:104590005B09DBB218467B681B7803F01F0301211F
:1045A00001FA03F342F820300FE00B497B681B78D7
:1045B0005B09DBB218467B681B7803F01F030122FE
:1045C0009A4000F1200341F8232000BF1C37BD466C
:1045D00080BC704700ED00E000E100E080B58AB0EB
:1045E00000AF786039600023FB8400237B840423C0
:1045F000BB84574BFB617B689B88FB84FB8C23F05F
:104600003F03FB8407F108031846FEF7B5F93B6941
:10461000FB61FB694F4AA2FB03239B0C7B84FA8C52
:104620007B8C1343FB847B68FA8C9A807B681B88A5
:104630009BB223F001039AB27B681A800023FB84AB
:104640003B681B68444A934215D83B681B685B0073
:10465000FA69B2FBF3F3BB84BB8C032B01D80423B0
:10466000BB84FA8CBB8C1343FB847B8C01339AB2E2
:104670007B681A8440E03B68DB884BF6FF7293420C
:1046800009D13B681A6813465B001344FA69B2FB10
:10469000F3F3BB840EE03B681A6813469B00134497
:1046A0009A001344FA69B2FBF3F3BB84BB8C43F466
:1046B0008043BB84BB8CC3F30B03002B03D1BB8CA7
:1046C00043F00103BB84BA8CFB8C13439BB26FEAAB
:1046D00043436FEA5343FB847B8C4FF4967202FB97
:1046E00003F31E4A82FB03129211DB17D31A9BB20B
:1046F00001339AB27B681A847B68FA8C9A837B6850
:104700001B889BB243F001039AB27B681A807B68D6
:104710001B88FB84FB8C23F4816323F00203FB845E
:104720003B689A883B685B8913439AB2FB8C1343BE
:10473000FB847B68FA8C1A803B689A893B681B89EA
:1047400013439AB27B681A8100BF2837BD4680BDEB
:1047500000127A0083DE1B43A0860100D34D621055
:1047600080B483B000AF78600B46FB70FB78002B01
:1047700008D07B681B889BB243F400739AB27B68B5
:104780001A8007E07B681B889BB223F400739AB2FF
:104790007B681A8000BF0C37BD4680BC704700BFE5
:1047A00080B582B000AF7860054A7B6813604FF433
:1047B00061217868FCF7A0FF00BF0837BD4680BDC7
:1047C000FC08002090B583B000AF194B1B68184659
:1047D000FCF71CFF0346002B25D0154B1B68394600
:1047E00008221846FCF742FF3B78413BDBB23B70A6
:1047F0000023FB713B780F2B15D83B781A46012319
:1048000093401A460B4B1B6813430A4A13603B78CC
:104810001C463B460133184602F0B2FD03461AB26D
:10482000054B23F8142000BF0C37BD4690BD00BFD8
:10483000FC080020D40600202809002080B584B0A0
:1048400000AF0023FB730023FB733BE0FB7B0122E3
:1048500002FA03F31A46214B1B681340002B2ED09B
:10486000FB7B1F4A32F813301BB218463B4601331C
:104870000A22194602F0A6FD0223BB600EE03A466A
:10488000BB6813441B78002B05D13A46BB68134420
:104890000A221A7005E0BB680133BB60BB68072BB6
:1048A000EDDDBB680133BB60FB7B4133DBB23B70AA
:1048B000BB68DAB23B4619460A48FDF717F8FB7B9E
:1048C0000133FB73FB7B132BC0D903220649054838
:1048D000FDF70CF800BF1037BD4680BDD80600209C
:1048E0000009002000480040FC75000880B483B037
:1048F00000AF7860034A7B68136000BF0C37BD4689
:1049000080BC7047D806002080B485B000AF7860C6
:104910000B46FB701346BB700023FB730023FB7335
:104920000FE0FB78FA7B520079680A44B2F9001074
:104930000A4A22F81310FB780133FB70FB7B01332A
:10494000FB73FA7BBB789A4202D2FB78132BE8D92F
:1049500000BF1437BD4680BC704700BF000900206F
:1049600080B483B000AF03460A46FB8013467B71D8
:104970007B79132B04D87B790449FA8821F813201A
:1049800000BF0C37BD4680BC704700BF0009002047
:1049900080B485B000AF78600B46FB701346BB70E7
:1049A0000023FB730023FB730FE0FB7B5B007A6843
:1049B0001344FA780B4931F8122012B21A80FB78AE
:1049C0000133FB70FB7B0133FB73FA7BBB789A42AC
:1049D00002D2FB780F2BE8D900BF1437BD4680BC4C
:1049E000704700BF2809002080B483B000AF0346A1
:1049F000FB71FB79044A32F813301BB218460C37AE
:104A0000BD4680BC704700BF2809002080B485B037
:104A100000AF0346FB710023FB73FB79012202FA0E
:104A200003F31A460B4B1B681340002B01D00123E4
:104A3000FB73FB79012202FA03F3DB431A46054BB1
:104A40001B681340034A1360FB7B18461437BD46AE
:104A500080BC7047D406002080B582B000AF78607B
:104A600039603968786802F045FC0346002B01D0B4
:104A70003B680EE03B6883F000437968184602F01B
:104A800039FC0346002B03D03B6883F0004300E071
:104A90007B6818460837BD4680BD00BF80B586B02C
:104AA00000AFF860B9601346FB71FB79013BFB7501
:104AB0000FE0FB7D9B00BA681A44FB7D03F1804345
:104AC000013B9B00B9680B441B681360FB7D013BF5
:104AD000FB75FB7D012BECD8BB68FA681A604FF0C0
:104AE00000033B610023FB750DE0FB7D9B00BA6872
:104AF00013441B681946386902F038F903463B61D4
:104B0000FB7D0133FB75FA7DFB799A42EDD3FB798E
:104B1000184602F0DBF903461946386902F0E2FA5A
:104B200003463B613B6918461837BD4680BD00BF50
:104B300000B51C4A20F00043934283B018DDB3F166
:104B4000FF4F05DB014602F00FF903B05DF804FBEF
:104B5000694600F04DFC00F00302012A15D0022A3C
:104B60000CD0CAB101220199009801F01BFAECE7C0
:104B7000002100F003FE03B05DF804FB01990098EA
:104B800000F0FCFD00F10040DFE70199009801F022
:104B900009FA00F10040D8E70199009800F0EEFD15
:104BA000D3E700BFD80F493F00B51D4A20F00043AE
:104BB000934283B019DDB3F1FF4F05DB014602F0EC
:104BC000D3F803B05DF804FB694600F011FC00F077
:104BD0000300012818D002280ED0D0B10199009806
:104BE00000F0CCFD00F10040EBE70022002101F0D5
:104BF000D9F903B05DF804FB01220199009801F096
:104C0000D1F900F10040DCE70199009800F0B6FD11
:104C1000D7E701220199009801F0C4F9D1E700BF5C
:104C2000D80F493FF0B58BB0044600F0A1F8234EF1
:104C3000054696F90030013330D02146204602F077
:104C400063FB074650BB204601F040FB4FF07E510E
:104C500002F050FB10B31A4A012320460192009340
:104C6000089701F03FFD02460B461648CDE90423A4
:104C7000CDE9022301F00EFA96F90030CDE90601E4
:104C8000022B0ED0684601F003FA50B1089B7BB9A5
:104C9000DDE9060102F014F80BB0F0BD28460BB0B8
:104CA000F0BD02F071FB21230360089B002BEFD0C5
:104CB00002F06AFB089B0360EAE700BF40000020A7
:104CC00000760008247A0008F0B58BB0044600F0A6
:104CD000B3F9234E054696F90030013330D0214612
:104CE000204602F011FB074650BB204601F0EEFAC9
:104CF0004FF07E5102F0FEFA10B31A4A012320460B
:104D000001920093089701F0EDFC02460B4616480D
:104D1000CDE90423CDE9022301F0BCF996F9003076
:104D2000CDE90601022B0ED0684601F0B1F950B171
:104D3000089B7BB9DDE9060101F0C2FF0BB0F0BDB5
:104D400028460BB0F0BD02F01FFB21230360089B37
:104D5000002BEFD002F018FB089B0360EAE700BFCE
:104D60004000002008760008247A000800F0AEBA5F
:104D7000F8B520F00043B3F17E5F11D0044608DCA3
:104D8000B3F17C5F11DAB3F10C5F00F383809B48D1
:104D9000F8BD014601F0E8FF014602F0A3F9F8BDB5
:104DA000002840F3CB800020F8BD0028C0F2C88066
:104DB00001464FF07E5001F0D7FF4FF07C5102F0DA
:104DC000DDF8044600F086FC8D490646204602F0D8
:104DD000D5F88C4901F0CAFF214602F0CFF88A4984
:104DE00001F0C2FF214602F0C9F8884901F0BEFF78
:104DF000214602F0C3F8864901F0B6FF214602F0D1
:104E0000BDF8844901F0B2FF214602F0B7F88249AB
:104E10000546204602F0B2F8804901F0A5FF214680
:104E200002F0ACF87E4901F0A1FF214602F0A6F89D
:104E30007C4901F099FF214602F0A0F84FF07E5125
:104E400001F094FF0146284602F04CF9314602F089
:104E500095F826F47F6525F00F0507462946284674
:104E600002F08CF80146204601F07EFF29460446F8
:104E7000304601F07BFF0146204602F033F901463F
:104E8000384601F073FF294601F070FF014601F03A
:104E90006DFFF8BD014602F071F80546584902F071
:104EA0006DF8584901F062FF294602F067F856494B
:104EB00001F05AFF294602F061F8544901F056FF0B
:104EC000294602F05BF8524901F04EFF294602F0F4
:104ED00055F8504901F04AFF294602F04FF84E4973
:104EE0000646284602F04AF84C4901F03DFF2946A3
:104EF00002F044F84A4901F039FF294602F03EF831
:104F0000484901F031FF294602F038F84FF07E5150
:104F100001F02CFF0146304602F0E4F8214602F091
:104F20002DF80146404801F01FFF0146204601F0E0
:104F30001BFF01463D4801F017FFF8BD3C48F8BD96
:104F40004FF07E5101F012FF4FF07C5102F016F845
:104F500004462B4902F012F82A4901F007FF2146C6
:104F600002F00CF8284901F0FFFE214602F006F895
:104F7000264901F0FBFE214602F000F8244901F029
:104F8000F3FE214601F0FAFF224901F0EFFE21462F
:104F900001F0F4FF0646204600F09CFB1E49054642
:104FA000204601F0EBFF1D4901F0DEFE214601F035
:104FB000E5FF1B4901F0DAFE214601F0DFFF194948
:104FC00001F0D2FE214601F0D9FF4FF07E5101F0F1
:104FD000CDFE0146304602F085F8294601F0CEFFAD
:104FE000114901F0C1FE294601F0C0FE014601F061
:104FF000BDFE01460F4801F0B7FEF8BDDB0FC93F0B
:1050000008EF1138047F4F3A4611243DA80A4E3E5E
:1050100090B0A63EABAA2A3E2EC69D3D6133303FDE
:105020002D57014039D119406821A233DA0FC93F09
:10503000DB0F4940DA0F49402DE9F84320F00045E5
:10504000B5F17E5F044600F0C68012DCB5F17C5FEE
:10505000064616DAB5F1485F80F2CB808B4901F045
:1050600085FE4FF07E5102F045F950B12046BDE873
:10507000F883014601F078FE014602F033F8BDE8FE
:10508000F883204601F022F901464FF07E5001F0EE
:105090006BFE4FF07C5101F071FF04467C4901F03A
:1050A0006DFF7C4901F062FE214601F067FF7A49FD
:1050B00001F05AFE214601F061FF784901F056FEE9
:1050C000214601F05BFF764901F04EFE214601F0DA
:1050D00055FF744901F04AFE214601F04FFF724925
:1050E0008046204601F04AFF704901F03DFE21460E
:1050F00001F044FF6E4901F039FE214601F03EFF08
:105100006C4901F031FE214601F038FF4FF07E512D
:1051100001F02CFE8146204600F0DCFA664B074683
:105120009D424946404643DC01F0DCFF394680465B
:10513000384601F01BFE0146404601F01FFF27F4F0
:105140007F6525F00F0580462946284601F016FFA9
:105150000146204601F008FE29460446384601F083
:1051600005FE0146204601F0BDFF014601F0FEFDAF
:105170000146524801F0F8FD0146404601F0F4FDB9
:1051800029460446284601F0F1FD01464C4801F04D
:10519000EBFD0146204601F0E7FD0146484801F0DD
:1051A000E3FD002E3FF763AF00F10040BDE8F88358
:1051B00001F098FF394601F0E1FE394601F0D6FDD5
:1051C000014601F0D3FD3F4901F0D0FD01463E48C4
:1051D00001F0CAFDE5E73C4901F0D0FE374905463C
:1051E000204601F0CBFE0146284601F0BFFDBDE898
:1051F000F883014601F0C2FE0546254901F0BEFED6
:10520000244901F0B3FD294601F0B8FE224901F01E
:10521000ABFD294601F0B2FE204901F0A7FD294669
:1052200001F0ACFE1E4901F09FFD294601F0A6FEEB
:105230001C4901F09BFD294601F0A0FE1A490646D3
:10524000284601F09BFE194901F08EFD294601F028
:1052500095FE174901F08AFD294601F08FFE154998
:1052600001F082FD294601F089FE4FF07E5101F0E8
:105270007DFD0146304601F035FF214601F07EFEFE
:10528000214601F073FDBDE8F88300BFCAF2497101
:1052900008EF1138047F4F3A4611243DA80A4E3ECC
:1052A00090B0A63EABAA2A3E2EC69D3D6133303F4C
:1052B0002D57014039D119409999793F2EBD3BB303
:1052C000DB0F493F2EBD3B33DB0FC93FF8B50C4622
:1052D00021F00041B1F1FF4F034614DC20F00046FD
:1052E000B6F1FF4F07460EDCB4F17E5F3DD0A51747
:1052F00005F0020545EAD07556B9022D31D0032DCF
:105300002CD13248F8BD1946204601F02FFDF8BDDA
:1053100001B3B1F1FF4F2CD0B6F1FF4F1AD0711A83
:10532000C9153C291BDC002C39DB2146184601F04D
:10533000D9FE00F0CBFF00F0B3FE012D2CD0022DE2
:1053400022D0002D2FD0224901F010FD214901F07B
:105350000BFDF8BD002F06DB1F48F8BDF8BD1E4849
:10536000EBE71C48F8BD1D48F8BDBDE8F84000F06B
:1053700097BEB6F1FF4F17D0022DF2D0032DC0D04B
:10538000012D19D00020F8BD114901F0EFFC0146B4
:10539000104801F0E9FCF8BD00F10040F8BD3C31D7
:1053A000C3DA0020C9E7F8BD022D0CD0032D08D0C8
:1053B000012D04D00A48F8BD4FF00040F8BD09485F
:1053C000F8BD0948F8BD0948F8BD00BFDB0F49C06A
:1053D0002EBDBB33DB0F4940DB0FC93FDB0FC9BF1D
:1053E000DB0F493FDB0F49BFE4CB16C0E4CB1640CF
:1053F0002DE9F04FAA4A20F00044944289B067DDBD
:10540000A84A0D469442074601461CDC0028A649DE
:1054100040F3EA8001F0A8FCA44B24F00F049C4266
:10542000064663D0A24901F09FFC01463046296040
:1054300001F09AFC9E4901F097FC01236860184630
:1054400009B0BDE8F08F9B4A944261DDB4F1FF4F93
:1054500046DAE615863EA4EBC654204601F06AFF04
:1054600001F038FD034620461946059301F07CFC07
:105470004FF0874101F082FD804601F05BFF01F0B3
:1054800029FD044640462146069401F06DFC4FF08C
:10549000874101F073FD0021079001F003FF002810
:1054A00000F0C3802046002101F0FCFE002814BF5C
:1054B00001230223804802210190009132462946AF
:1054C00005A800F01FFA002FC0F2A580034603E0F4
:1054D000002208604A600023184609B0BDE8F08F3A
:1054E00001F042FC002368602860F5E7734901F091
:1054F0003BFC7349044601F037FC01462046296015
:1055000001F032FC6E4901F02FFC01236860E3E7F3
:1055100000F0DCFE6B49804601F030FD4FF07C511D
:1055200001F024FC01F006FF064601F0D3FC5E49C1
:10553000834601F023FD0146404601F015FC5C491D
:105540008146584601F01AFD1F2E82460146484604
:1055500018DC5D4B721E53F8223024F0FF029A4291
:1055600010D001F001FC8046C5F800804146484655
:1055700001F0FAFB514601F0F7FB002F686056DBA3
:105580003346A9E701F0F0FBE215C0F3C753D31A85
:10559000082B8046E8DD49495846039201F0EEFCAD
:1055A00080460146484601F0DFFB01460446484676
:1055B00001F0DAFB414601F0D7FB804640495846EE
:1055C00001F0DCFC414601F0CFFB0146824620465B
:1055D00001F0CAFB039AC0F3C753D21A192A8046B6
:1055E00041DC2860A146C1E701F0C0FB2F4B24F04D
:1055F0000F049C42064623D02D4901F0B7FB01461B
:105600003046296001F0B0FB294901F0AFFB4FF0B3
:10561000FF33686060E795E80C0002F1004103F198
:105620000042296043426A6056E7032342E708F1DB
:10563000004800F10040C5F80080686073424BE705
:105640001E4901F093FB1E49044601F08FFB014601
:105650002046296001F088FB194901F087FB4FF0D3
:10566000FF33686038E71949584601F087FC014666
:105670008046204601F078FB01468146204601F035
:1056800073FB414601F070FB04461149584601F096
:1056900075FC214601F068FB82460146484660E7FA
:1056A000D80F493FE3CB1640800FC93FD00FC93F09
:1056B00043443537800F494390760008004435371E
:1056C00008A3852E84F9223F1076000800A3852EBA
:1056D00032318D2420F00042B2F1FF4F70B5044604
:1056E0002ED262B3002803463DDBB2F5000F4FEA2D
:1056F000E0502CD3002631467F38C3F31603C2078F
:1057000043F4000348BF5B0040105B0019244FF0D6
:1057100080728D189D4202DC5B1BA9181644013C67
:105720004FEA43034FEA5202F3D113B106F00103EB
:105730001E44761006F17C5606EBC05070BD70BD5D
:10574000014601F01BFC214601F010FB70BD14F472
:10575000000201D00EE00A465B001C0202F10101CA
:10576000F9D5801AC6E7014601F0FEFA014601F0BC
:10577000B9FC70BD4FF0FF32F3E700BF2DE9F843ED
:1057800020F00044B4F1485F06460F4649DA01F0C4
:10579000D1FD002800F09D803146304601F0EEFB3F
:1057A00005464E4901F0EAFB4D4901F0DFFA294672
:1057B00001F0E4FB4B4901F0D7FA294601F0DEFB8A
:1057C000494901F0D3FA294601F0D8FB474901F0D5
:1057D000CBFA294601F0D2FB454901F0C7FA294628
:1057E00001F0CCFB80464FF07C51284601F0C6FB0F
:1057F00041460446284601F0C1FB3946054630467D
:1058000001F0BCFB0146284601F0AEFA01462046F5
:1058100001F0AAFA01464FF07E5001F0A5FABDE86A
:10582000F883014601F0AAFB05462C4901F0A6FBCE
:105830002B4901F09BFA294601F0A0FB294901F010
:1058400093FA294601F09AFB274901F08FFA29467D
:1058500001F094FB254901F087FA294601F08EFBFF
:10586000234901F083FA294601F088FB214B804649
:105870009C42B8DD204B9C4227DC04F17F4421464A
:105880004FF07E5001F070FA81464FF07C5128466F
:1058900001F074FB214601F067FA414604462846B0
:1058A00001F06CFB39460546304601F067FB0146C6
:1058B000284601F059FA0146204601F055FA014602
:1058C000484601F051FABDE8F883DFF834900B4CFC
:1058D000DBE74FF07E50BDE8F88300BF4ED747AD01
:1058E000F6740F317CF29334010DD037610BB63A68
:1058F000ABAA2A3D9999993E0000483F0000903E8E
:105900000000383F2DE9F04F1C46DFB00891611EC2
:1059100001910A936899BB4B029053F82130079389
:10592000D31E48BF131DDB1023EAE37319460B9304
:105930000133A2EBC3030693019A079B8D1A9C18AF
:1059400015D42C44013421AE699F08E057F8250096
:1059500001F0C0FA0135A54246F8040F07D0002D2A
:10596000F4DA01350020A54246F8040FF7D1079B71
:10597000002B2ADB079B0A9A19469346019E49AFE2
:1059800001EB0208019B002BC0F2A18122ABCBEB03
:10599000060503EB8505029B4FF00009A3F1040AFD
:1059A00022AB03EB86045AF8041F54F8040901F0F3
:1059B000E5FA0146484601F0D9F9AC428146F2D1F8
:1059C0000136464547F8049FDCD1079B0EA91E46C9
:1059D00003F18043023B9B001A1D0A440B440D92C5
:1059E0000C935EAB03EB8603002E53F8508C23DD43
:1059F0005EAB03EB8604543C0DAD49AF4FF06E51E6
:105A0000404601F0BBFA01F095FC01F063FA4FF05B
:105A10008741814601F0B2FA0146404601F0A4F9FF
:105A200001F088FC54F8041945F8040F484601F0C9
:105A30009DF9BC428046E1D14046DDF818804146E0
:105A400000F08EFC4FF07851044601F097FA00F018
:105A500041FC4FF0824101F091FA0146204601F0ED
:105A600083F9044601F066FC074601F033FA01466B
:105A70002046444601F078F9002C054640F30E819B
:105A8000701E0EAB53F82030C8F1080243FA02F141
:105A900001FA02F29B1AC8F1070A0EAA42F8203056
:105AA0000F4443FA0AFABAF1000F30DD002E07F175
:105AB000010740F34D82002214460DA907E0C3F50B
:105AC00080700BB108600124013296420BDD51F861
:105AD000043F002CF3D00132C3F1FF0396420B6068
